:020000040800F2
:1000000038080020CD01000885150008931200086B
:100010005914000881030008951900080000000029
:10002000000000000000000000000000651700084C
:10003000F10400080000000087150008CB17000835
:10004000E7010008E7010008E7010008E7010008F0
:10005000E7010008E701000825050008E70100089E
:10006000E7010008E7010008E7010008E7010008D0
:10007000E7010008E7010008E7010008E7010008C0
:10008000E7010008E7010008E7010008E7010008B0
:10009000E7010008E7010008E7010008E7010008A0
:1000A000E701000831180008E7010008E70100082F
:1000B0003D180008E7010008E7010008E701000813
:1000C000E7010008E7010008E7010008E701000870
:1000D000E7010008E7010008E7010008E701000860
:1000E000E7010008E7010008E7010008E701000850
:1000F000E7010008E7010008E7010008E701000840
:10010000E7010008E7010008E7010008E70100082F
:10011000E7010008E7010008E7010008E70100081F
:10012000E7010008E7010008E7010008E70100080F
:1001300000F002F800F03AF80AA090E8000C8244BF
:100140008344AAF10107DA4501D100F02FF8AFF29C
:10015000090EBAE80F0013F0010F18BFFB1A43F0A5
:1001600001031847EC2200000C230000103A24BFC2
:1001700078C878C1FAD8520724BF30C830C144BF0C
:1001800004680C607047000000230024002500264E
:10019000103A28BF78C1FBD8520728BF30C148BFEA
:1001A0000B6070471FB51FBD10B510BD00F058F8AB
:1001B0001146FFF7F7FF01F061FC00F076F803B499
:1001C000FFF7F2FF03BC00F07DF80000094880470C
:1001D00009480047FEE7FEE7FEE7FEE7FEE7FEE729
:1001E000FEE7FEE7FEE7FEE704480549054A064B41
:1001F000704700002D180008310100083802002067
:100200003808002038040020380400204FF0000295
:1002100000B5134694469646203922BFA0E80C50FC
:10022000A0E80C50B1F12001BFF4F7AF090728BFD7
:10023000A0E80C5048BF0CC05DF804EB890028BF53
:1002400040F8042B08BF704748BF20F8022B11F07C
:10025000804F18BF00F8012B7047704770477047F8
:10026000754600F02BF8AE4605006946534620F06F
:100270000700854618B020B5FFF7B6FFBDE820405F
:100280004FF000064FF000074FF000084FF0000B52
:1002900021F00701AC46ACE8C009ACE8C009ACE805
:1002A000C009ACE8C0098D46704710B50446AFF3ED
:1002B00000802046BDE81040FFF781BF004870472E
:1002C000D801002001491820ABBEFEE7260002003D
:1002D000704700002DE9F0411F4D04461F4F68781C
:1002E0000126012810D0384601F078FB002809D0FB
:1002F0006E7084F8A3602878401CC0B2287005286E
:1003000000D92E70BDE8F0812878012808D0022895
:1003100008D0032808D0042808D0052808D00AE00F
:10032000606906E0A06904E0E06902E0206A00E09C
:10033000606AC4F8980000F01BF800F0F7F838463F
:1003400001F04CFB0028DDD00020687084F8A2602A
:10035000022084F88900D5E700000020404B4C00C3
:1003600000220421014800F036BA000000140140C8
:1003700001220421014800F02EBA000000140140BF
:10038000FEE770B50446B0F88010026890F882006D
:1003900001F012FB6061B4F8801094F8820062688A
:1003A00001F00AFBA061B4F8801094F88200A26802
:1003B00001F002FBE061B4F8801094F88200E2687A
:1003C00001F0FAFA2062B4F8801094F882002269F1
:1003D00001F0F2FA6062D4E90523991A2163E16918
:1003E0008D1A6563256AAE1AA663861AE663D61A65
:1003F0002664CE1A6664EE1AA664C61AE664561A15
:1004000026655E1A66656E1AA665461AE665561B6F
:1004100026665E1B66664E1BA666461B121AC4E95C
:100420001B621A1A091A281A6267C4E91E1070BDE5
:1004300002EB810300EB8300914202D250F8180CCA
:10044000704750F8140C7047012180F8A8107047CD
:1004500001F06CB8012180F8A4107047012280F8E7
:10046000A620002904DDC0F8981080F88A20704783
:100470004942C0F89810002180F88A10704770B582
:1004800001250446012908D002290BD003290ED0EA
:10049000042911D0052914D017E084F8AB50C4F812
:1004A000B02012E084F8AC50C4F8B4200DE084F819
:1004B000AD50C4F8B82008E084F8AE50C4F8BC20B1
:1004C00003E084F8AF50C4F8C020C4F8C41034F876
:1004D000801FA07801F070FAA0610220607284F899
:1004E000235084F8255070BD012180F8A310704777
:1004F000704730B4DDE9024580E83E0030BCFFF7CC
:1005000040BF000010B5064C00220221204600F03A
:1005100062F920460122BDE81040110200F05BB9EB
:1005200000080140012000F049B8000010B5064C59
:1005300001220221204600F04EF90022A11520469A
:10054000BDE8104000F047B90008014010B504466E
:1005500090F8A90030B101F079FA44F88C0F00202E
:10056000607710BD01F072FAD4F88C10401AC4F80C
:100570009000B4F884000321B0FBF1F1D4F890208E
:100580000C4B914201D3012204E0D4F89010814237
:1005900006D80022BDE810400121184600F01BB922
:1005A000D4F89C00401CC4F89C002046BDE81040D4
:1005B00001F0D0B80008014070470000044910B5B0
:1005C0000A68024202D00860FFF7F6FF10BD000083
:1005D000140401402DE9F84FDFF8C8910024A9F177
:1005E000040B23460F2709F1040AABF1040ED1E0F6
:1005F0000125A54006EA0502AA4276D1DFF8A8C186
:100600004E68A6EB0C0866452BD00DDC032E34D0CB
:1006100005DC36B3012E19D0022E2FD11BE0112E8E
:1006200016D0122E2AD119E0B8F5881F19D006DC91
:10063000B8F5803F15D0B8F5801F1FD111E0B8F58F
:10064000001F0ED0B8F5041F18D10AE0CB6815E0E2
:10065000CB681B1D12E0CB6808330FE0CB680C336E
:100660000CE08B682BB1012B4FF0080303D04561E0
:1006700004E0042302E0056100E00023FF2A01D822
:10068000064601E000F104064FEA840501D9A5F110
:100690002005D6F8008007FA05FC28EA0C0803FAC2
:1006A00005F548EA0508C6F800804D68ED0070D5EC
:1006B0003E4DAE6946F00106AE61AD6924F0030619
:1006C00005F0010500953A4D06EB050CDCF80850E5
:1006D000A607360F07FA06F825EA0805DFF8D480E2
:1006E000404503D14FF0000825E052E0DFF8C88014
:1006F000404502D14FF001081DE0DFF8C0804045C1
:1007000002D14FF0020816E0DFF8B480404502D174
:100710004FF003080FE0DFF8AC80404502D14FF006
:10072000040808E0DFF8A080404502D14FF005083A
:1007300001E04FF0060808FA06F848EA0508CCF888
:1007400008804D68D9F80060ED024D4601D516438A
:1007500000E096432E604D68DAF80060AD02554621
:1007600001D5164300E096432E604D68DBF800602B
:10077000AD035D4601D5164300E096432E604D68FB
:10078000DEF80060ED03754601D5164300E09643A0
:100790002E60641C0A681646E2407FF429AFBDE86B
:1007A000F88F000008040140000011100010024002
:1007B0000000014000080140000C01400010014011
:1007C0000014014000180140001C014080680840EE
:1007D00000D0012070470AB1016170470904FBE7AE
:1007E000014880687047000070000020024881685E
:1007F000027811448160704770000020074810B5EE
:10080000016841F010010160032000F075F80F202D
:1008100000F006F800F024F8002010BD002002408F
:1008200070B50D4D04464FF47A712878B1FBF0F0A5
:100830000A490968B1FBF0F000F0BCFA48B9102C85
:1008400007D200222146501E00F036F800206C60CE
:1008500070BD012070BD0000700000207C000020F1
:100860000C4808B5816941F001018161816901F09D
:1008700001010091C16941F08051C161C06900F07E
:10088000805000900448416821F0E06141F000711F
:10089000416008BD0010024000000140002809DB53
:1008A00000F01F02012191404009800000F1E0208A
:1008B000C0F8001170470000F0B40E4B1B680C46E6
:1008C000C3F30223C3F10705042D00D90425191D24
:1008D000072901D2002300E0DB1E012606FA05F1FC
:1008E000491E214099409E40761E16403143F0BC7F
:1008F00001F051B80CED00E0064900F0070208686D
:100900004FF6FF03184040EA0220034A10430860F4
:10091000704700000CED00E00000FA052DE9F047FB
:100920000F46050061D0434E306800F00700B84222
:1009300009D2306820F0070038433060306800F09A
:100940000700B84251D128683B4C810712D54007B7
:1009500003D5606840F4E06060602878000703D544
:10096000606840F4605060606068A96820F0F00042
:10097000084360602878C00728D06868012810D034
:100980002168022810D0890700292EDA616821F039
:10099000030101436160FFF723FF804641F288397C
:1009A0000DE021688903EFE78901EDE7FFF718FF04
:1009B000A0EB0801494502D90320BDE8F087606833
:1009C000696800F00C00B0EB810FEFD1306800F0E7
:1009D0000700B8420BD9306820F007003843306078
:1009E000306800F00700B84201D00120E5E7287820
:1009F000400705D56068E96820F4E060084360605E
:100A00002878000706D56068296920F4605040EA1C
:100A1000C100606000F018F86168084AC1F3031172
:100A2000515CC8400649086006480068FFF7F8FEB8
:100A30000020C2E700200240001002403E240008CF
:100A40007C000020740000200E4A51680E4801F01E
:100A50000C03042B11D0082B0FD10C48C1F3834396
:100A6000C903C05C0AD55168084AC1F34041921ECF
:100A7000515C054A5043B0FBF1F0704704494843CC
:100A8000704700000010024000127A002E24000877
:100A900000093D002DE9F84F040070D02078C04DCA
:100AA000C00749D06868C0F38100012807D0686892
:100AB000C0F38100022809D16868C00306D5286800
:100AC000800339D560680028E7D035E06068B0F56C
:100AD000803F0BD010B1B0F5A02F11D0286820F4C2
:100AE00080302860286820F4802002E0286840F4E4
:100AF00080302860606890B1FFF772FE06460AE019
:100B0000286840F480202860F0E700BFFFF768FE07
:100B1000801B642873D828688003F7D50CE0FFF7A2
:100B20005FFE064605E000BFFFF75AFE801B642803
:100B3000F0D828688003F7D420789A4E80074FF0C9
:100B400001094FF0000839D5686810F00C0F07D084
:100B50006868C0F38100022809D16868C00306D420
:100B60002868800714D52069012808D110E0206981
:100B7000B0B1C6F80090FFF733FE074605E00AE182
:100B8000FFF72EFEC01B0228C4D828688007F7D5BF
:100B90002868616920F0F80040EAC10028600DE093
:100BA000C6F80080FFF71CFE074604E0FFF718FEBA
:100BB000C01B022823D828688007F7D420780007B4
:100BC0002CD57948A169D9B1C0F80090FFF708FE8B
:100BD000074604E0FFF704FEC01B02280FD8686A2E
:100BE0008007F7D571484FF4FA510068B0FBF1F077
:100BF000009000BF0098411E0091FAD20EE080E004
:100C0000C0F80080FFF7ECFD074604E0FFF7E8FDC1
:100C1000C01B022875D8686A8007F7D4207840077F
:100C200060D5E8690027C00008D4E86940F080502A
:100C3000E861E869012700F0805000905C48016895
:100C4000C90513D40168834641F480710160FFF740
:100C5000C7FD824606E000BFFFF7C2FDA0EB0A0019
:100C600064284ED8DBF80000C005F5D5E0680128FF
:100C70000AD008B1052813D0286A20F001002862A4
:100C8000286A20F0040002E0286A40F0010028628F
:100C9000E06841F2883B98B1FFF7A2FD82460BE085
:100CA000286A40F004002862EEE700BFFFF798FDD5
:100CB000A0EB0A0159455AD8286A8007F6D50CE0FE
:100CC000FFF78EFD824605E0FFF78AFDA0EB0A01E3
:100CD00059454CD8286A8007F6D41FB1E86920F03E
:100CE0008050E861E06988B36968C1F38101022935
:100CF00044D00228C6F8608004D0FFF771FD044696
:100D000038E034E0FFF76CFD074604E0FFF768FDCC
:100D1000C01B02282BD828688001F7D4206AB0F5C0
:100D2000803F05D16868A16820F4003008436860FE
:100D3000D4E908010843696821F474110843686024
:100D4000C6F86090FFF74CFD044606E025E000BFC2
:100D5000FFF746FD001B022809D828688001F7D557
:100D60001BE000BFFFF73CFD001B022802D9032057
:100D7000BDE8F88F28688001F4D40EE00128F7D090
:100D80006868226A00F48031914204D1616A00F4FB
:100D90007010884201D00120EAE70020E8E7000057
:100DA0000010024000004242800442427C000020C9
:100DB0000070004010B5401EB0F1807F01D30120CB
:100DC00010BD4FF0E02460610F21601700F0E3FDDB
:100DD0000020A06107202061002010BD70477047EF
:100DE00070B590F83C20012A2CD0012480F83C40BA
:100DF000022280F83D2003685A689D6822F0700640
:100E00000A6832435A60104B02689A420ED00F4B68
:100E10009A420BD0B2F1804F08D00D4B9A4205D0C8
:100E20000C4B9A4202D00C4B9A4204D1496825F0EF
:100E300080031943916080F83D40002180F83C1008
:100E4000084670BD022070BD002C014000340140F6
:100E50000004004000080040000C004010B50400F1
:100E600003D094F83D0010B107E0012010BD002030
:100E700084F83C00204600F01FF8022084F83D0072
:100E8000211D206800F0E0FC012084F8460084F871
:100E90003E0084F83F0084F8400084F8410084F864
:100EA000420084F8430084F8440084F8450084F844
:100EB0003D00002010BD000008B5154A0168154826
:100EC00091420ED1816941F4006181618069002203
:100ED00000F40060009002211920FFF7EDFC1920BA
:100EE00010E0B1F1804F11D1C16941F00101C16140
:100EF000C069002200F00100009002211C20FFF7D1
:100F0000DBFC1C20BDE80840FFF7C8BC08BD0000A2
:100F1000002C01400010024090F83D10012901D042
:100F200001207047022180F83D100168CA6842F034
:100F30000102CA6000680E4988420ED00D498842FD
:100F40000BD0B0F1804F08D00B49884205D00B4937
:100F5000884202D00A49884204D1816801F0070121
:100F6000062903D0016841F00101016000207047AB
:100F7000002C014000340140000400400008004003
:100F8000000C004070B5044690F83C000025012894
:100F900017D0012684F83C60022084F83D002068C8
:100FA000826822F0770222F47F428260086850282B
:100FB00038D00DDC20284FD005DC90B3102811D19B
:100FC0004AE0022070BD302846D040280AD13BE0DC
:100FD00060282FD070280DD0B0F5805F03D0B0F519
:100FE000005F12D0012584F83D60002084F83C00A9
:100FF000284670BDCB68D1E90121206800F06AFC69
:101000002068816841F0770109E0CB68D1E90121CE
:10101000206800F05FFC2068816841F480418160B5
:10102000E1E719E0CA684968206800F065FC5021D2
:10103000206806E0CA684968206800F06EFC6021FC
:10104000206800F051FCCEE7CA684968206800F0CB
:1010500053FC40212068F4E7226801461046F0E77F
:10106000704770B50446006801694FF00005C94338
:10107000890715D4C168C943890711D4E91E0161E4
:1010800001202077206880698007204602D0FFF782
:10109000E7FF04E000F098F8204600F096F8257786
:1010A00020680169C943490717D4C168C943490782
:1010B00013D46FF004010161022020772068806959
:1010C00010F4407F204602D0FFF7CAFF04E000F092
:1010D0007BF8204600F079F8257720680169C9433C
:1010E000090716D4C168C943090712D46FF0080173
:1010F0000161042020772068C0698007204602D063
:10110000FFF7AEFF04E000F05FF8204600F05DF866
:10111000257720680169C943C90617D4C168C94346
:10112000C90613D46FF010010161082020772068F0
:10113000C06910F4407F204602D0FFF791FF04E021
:1011400000F042F8204600F040F825772068016959
:10115000C943C90708D1C168C943C90704D1891E59
:101160000161204600F032F820680169C943090690
:1011700009D4C168C943090605D46FF08001016133
:101180002046FFF72BFE20680169C943490609D4B0
:10119000C168C943490605D46FF04001016120468A
:1011A00000F076F820680169C94389060BD4C1684C
:1011B000C943890607D46FF0200101612046BDE8CC
:1011C0007040FFF70CBE70BD7047704770B52D4A78
:1011D00001682D4C1268914208D1216A491C216294
:1011E000A18A491CA182E18A491CE1822549006843
:1011F00048310968884243D16078032840D1A07CF7
:10120000401CC0B2A07402283AD1607A002501289F
:1012100005D16572E1791D48226DFFF730F9A07A9A
:10122000012803D1A5721948FFF75EF9E07A012879
:1012300004D1E5721548616BFFF710F9207B012896
:1012400003D125731148FFF705F9607B012803D10D
:1012500065730E48FFF7F8F8A07B012804D1A57349
:1012600061790A48FFF7F4F82079012804D16179FF
:10127000064800F085FA2571044800F085F9A57448
:1012800070BD000048010020040000208000002004
:101290007047FEE72DE9F04786B0002436480094F9
:1012A000019402940394816941F010018161816984
:1012B00001F010010491816941F02001816181698F
:1012C00001F020010491816941F00401816180698C
:1012D000DFF8A89000F0040040F207170490002205
:1012E00039464846FFF777FADFF894A00022042138
:1012F0005046FFF770FA4FF4005001258DE8310099
:10130000DFF8808069464046FFF764F91E4E00957D
:10131000CDE9016469464046FFF75CF9CDE9007507
:101320000227CDE9024769464846FFF753F90820EE
:10133000CDE90004694648460294FFF74BF91020B6
:10134000CDE90006694602944846FFF743F90420B8
:10135000CDE90005CDE9024769465046FFF73AF965
:10136000002201210620FFF7A7FA0620FFF796FAD0
:1013700006B0BDE8F0870000001002400008014000
:1013800000140140001001400000111010B586B09B
:101390000024174800940194029403940494134980
:1013A000059401604721C0E9011440F2E731C0E92A
:1013B000031444618461FFF751FD08B172B6FEE782
:1013C0004FF48050009069460948FFF7DBFD08B1F3
:1013D00072B6FEE7049404A905480594FFF700FDE2
:1013E000002801D072B6FEE706B010BD002C014007
:1013F0004801002010B586B00024164800940194DE
:101400000294039404944FF08041059401604721B5
:10141000C0E901140921C0E903148461FFF71EFD2E
:1014200008B172B6FEE74FF4805000906946094853
:10143000FFF7A8FD08B172B6FEE7049404A90548B9
:101440000594FFF7CDFC002801D072B6FEE706B088
:1014500010BD000090010020FEE700002DE9F047DC
:101460000446DDF82090A0F8801004F8823F1E4664
:1014700044F85A2C1546084600F0F8FE80464746C8
:10148000304600F0F3FE0646294600F003FF3946D9
:1014900000F000FF00F0E0FD234F02460B46002065
:1014A000394600F0FDFB00F053FD60800220E07142
:1014B000002525724FF07E5144F8561C304600F04E
:1014C000E9FE414600F0E6FE00F0C6FD02460B468E
:1014D0000020394600F0E4FB00F03AFD24F8040F48
:1014E000012084F82300C4F80650C4F80A50C4F858
:1014F0001650C4F81250607104F8029F657684F8A3
:101500001890E076A57625776577A577E57784F856
:10151000200084F82250E560A562E56225636563DA
:10152000A5636576BDE8F087389C8C4101220223D3
:10153000012908D002290AD003290CD004290FD090
:10154000052912D017E080F8A120416911E080F848
:10155000A13081690DE0032180F8A110C16908E084
:10156000042180F8A110016A03E0052180F8A11090
:10157000416AC0F8981080F8A32080F8A22080F873
:1015800089307047FEE770472DE9F047044690F830
:1015900089000025DFF8B09101270226DFF8AC8131
:1015A00007281DD2DFE800F01C7F045DBCA1CA0043
:1015B00094F8A300C8B100F059FA84F88B0094F8AD
:1015C0008B0078B1FEF7D4FEFEF7B0FF002000F0EC
:1015D000CBF8484600F002FA002801D084F8897060
:1015E000BDE8F08784F8A350FAE794F8A200032539
:1015F00048B1FEF7BDFEFEF799FF94F88A001BE0A4
:1016000084F88950ECE794F8A60068B154F8C40F48
:10161000401C2060FEF78AFF14F83A0C00F0A4F892
:10162000052004F83B0CDBE794F8A50060B1FEF759
:101630009FFEFEF77BFF012000F096F8484600F081
:10164000CDF90028DCD1CBE794F8A40008B1042040
:1016500004E094F8A8000028C2D0062084F889008D
:10166000BEE7D4F89C00D4F89810884222D1FEF747
:1016700049FFFEF775FE484600F0B0F90028AFD0EC
:1016800084F8896084F8A25084F8A550C4F89C506E
:10169000C4F8985094F8A10084F8A0002046BDE852
:1016A000F04700F057B800F0E1F984F88B0094F8A7
:1016B0008B0020B12046BDE8F047FEF747BFFEF79C
:1016C00021FFFEF74DFE224800F088F9002887D060
:1016D000204600F03FF884F88A70C4F89C5004F863
:1016E000896FA57688F800707AE72046FEF72EFF0E
:1016F000D4F89C00D4F89810884294D1FEF702FFE9
:10170000FEF72EFE84F8896084F8A650C4F89C5039
:10171000C4F89850204600F01DF888F800605FE794
:10172000204600F00CF92046FEF72BFE94F88810B6
:101730002046FFF7FBFE84F8A45051E72046BDE8A1
:10174000F047FEF7C7BD0000C0C62D001500002001
:10175000404B4C00012180F8A910002140F88C1F5B
:101760004160704770470000044B08B1012200E05F
:10177000002204211846FFF72EB80000000801409F
:1017800010B5044690F8890002281DD194F8A000F5
:10179000884219D084F8A11094F8A12094F8A010E0
:1017A00004F13000FEF744FE0121002804DDC4F8F6
:1017B000980084F88A1005E04042C4F898000020A0
:1017C00084F88A0084F8A21010BDFFF70FB830B576
:1017D0008FB028216846FEF719FD14210AA8FEF7EC
:1017E00015FD01210804CDE9001000240294022512
:1017F0000491CDE907504FF4E01009906846FFF7D7
:1018000049F908B172B6FEE70F20CDE90A054FF499
:101810008060CDE90C4002210AA80E94FFF77EF803
:10182000002801D072B6FEE70FB030BD704700004F
:101830000148FFF716BC0000480100200148FFF7EF
:1018400010BC000090010020F0B502681C4B1D4D3B
:101850001D4E1E4F1E4C4FF0804C984209D0A042A6
:1018600007D0604505D0A84203D0B04201D0B842AD
:1018700004D122F0700E4A6842EA0E02984209D062
:10188000A04207D0604505D0A84203D0B04201D0A5
:10189000B84203D122F44075CA682A434D6922F048
:1018A00080022A4302608A68C2620A6882629842A1
:1018B00001D0A04201D10969016301214161F0BD5C
:1018C000002C01400004004000080040000C0040D3
:1018D0000034014010B5846842EA032224F47F44B6
:1018E0000A432243826010BD826822F070020A43DC
:1018F00042F007018160704710B5036A046A24F062
:1019000001040462846924F0F00444EA021423F020
:101910000A020A438461026210BD10B5036A046AB8
:1019200024F010040462846923F0A00324F47044BA
:1019300044EA023243EA01118261016210BD90F86B
:10194000AB20002122B1D0F8B020026080F8AB10AB
:1019500090F8AC2022B1D0F8B420426080F8AC10EE
:1019600090F8AD2022B1D0F8B820826080F8AD1098
:1019700090F8AE2022B1D0F8BC20C26080F8AE1042
:1019800090F8AF20002A04D0D0F8C020026180F87F
:10199000AF107047FEE70907090E002804DB00F1CD
:1019A000E02080F80014704700F00F0000F1E02004
:1019B00080F8141D7047000010B51446484300F02D
:1019C00055FC214600F066FC034900F071FBBDE8C0
:1019D000104000F02FBC00000000B4432DE9F04798
:1019E000154D81462878DFF85480154C002640B10B
:1019F00000F02CF844F8940F2168C8F800102E70FD
:101A000017E000F023F80F4F386000F01FF8D4F80B
:101A10009410421A0C484A450AD33A68D8F8001084
:101A2000511A016001202870C4F89460BDE8F08765
:101A300006600020FAE700006C0000206000002033
:101A40008000002064000020680000200548006835
:101A5000416A0548006A00EB4002C2EBC01001EB8E
:101A6000C000704748010020040000204FF40051DE
:101A70000148FEF7ABBE0000001001401CB5FEF7A8
:101A8000BDFEFFF7A4FEFFF705FCFFF77FFCFFF7A5
:101A9000B1FC01227B4D160231462846FEF79BFE23
:101AA000794F012204213846FEF795FE774C142326
:101AB0004FF4C841A06B6065A0792072E26CA2650A
:101AC00000907348FFF7CAFCD4E91101CDE9000189
:101AD00004F138016E480EC9FEF70BFD01223146B4
:101AE0002846FEF778FE012204213846FEF773FEF1
:101AF0006848FFF711FA67484830FFF70DFADFF83A
:101B0000909100264FF003080127A18A208B814283
:101B100000D3A682E08A618B884200D3E6822078D7
:101B2000012802D0022802D006E0002200E00122B3
:101B300002212846FEF74FFE607801282DD1A078BB
:101B400020B1FFF783FF6062A67019E0FFF77EFF08
:101B5000616A401AA062A18BB1FBF8F2824201D304
:101B6000012202E0884205D8002201212846FEF722
:101B700032FE05E0A770E06A6662401CC4E90A60B4
:101B8000D4E90B01884201D16670E6624FF400513E
:101B90004148FEF71BFEE07018B16078022803D0C0
:101BA0000DE06670E662B0E72079012804D1617922
:101BB0003748FFF7E5FD26713548FFF7E5FC60780B
:101BC0000428A2D13248FFF7DFFCE07B70B1012886
:101BD00020D0022850D0032897D1FFF737FF616A41
:101BE000401A2E49884290D3E67311E0207C18B148
:101BF00026742748FEF778FC607C012885D166743E
:101C0000E773A07A401CC0B2A072052800D9A77261
:101C100027747AE7A07A012808D002280CD003287C
:101C200010D0042814D0052818D01FE0207CE8B17B
:101C30002674D9F8141016E0207CB8B12674D9F8AF
:101C4000181010E0207C88B12674D9F81C100AE026
:101C5000207C58B12674D9F8201004E0207C28B1EB
:101C60002674D9F824100A48FEF7F8FB607C022895
:101C700099D1E073667448E784F80F80FFF7E6FEB9
:101C8000606242E7000801400014014004000020A7
:101C900080000020480100200010014080841E00C8
:101CA0002DE9C04130B4DFF8A0C23CEA111418BFDE
:101CB0003CEA131400F0EC8081EA03051CEA1114DD
:101CC00044EAD57418BF1CEA131500F0C780A4EBD2
:101CD00005044FF0004545EAC12145EAC32341EA26
:101CE000505143EA525304F17F74994204F5003491
:101CF0004FEAC0204FEAC22208BF904200F09C8009
:101D00004FEA13650FF24016765D4FEA134506FB66
:101D100005F7C7F1807706FB07F74FEAD737A7FB30
:101D200003687642C8F58038A7FB06CE38BFA8F115
:101D3000010807FB08E64FF0000EA6FB028CE6FB4D
:101D400003CEDCF1000CCEF1004E38BFAEF1010E37
:101D5000A6FB0C584FF000074FF00005E6FB0E877E
:101D6000A1FB08C6A0FB07CE16EB0E0645F1000549
:101D7000E1FB076515F1E04E7EBFA4F580345FEA14
:101D800046066D4116F1800745F100054FEA172719
:101D90004FEA066647EA0567A6F1DE46B6F1805FC0
:101DA0004FEA15251FD9384624F0010C05EBC47104
:101DB000BCF1FE6F01EB0C1102D8F0BCBDE8008154
:101DC00024425CBF01F5801E9EEAC47F02D4F0BCB1
:101DD000BDE80081244238D4F0BCA1F1C041BDE887
:101DE000004100F032B94FEAD22242EA43524FEAB0
:101DF000D323A7FB02864FEAD02040EA415007FBDD
:101E000003661EEA0E0F4FEAD12105FB026658BF9A
:101E1000A6EB0056B6EB00564FEA520E4EEAC37ED2
:101E200018EB0E0E56EB530EBDD518EB02085E41B3
:101E30007F1C55F10005B6E74FF480154FF0000701
:101E40004FF000064FF00008ADE7F0BC4FF0000087
:101E500001F1C04101F00041BDE8008111EA0C1F11
:101E60000CEA131500D00CE013EA0C1F00F02580DB
:101E70004FF00000F0BC81EA030101F00041BDE831
:101E80000081F0BCBDE8004181EA030100F0DDB84B
:101E9000F0BCBDE8004170B500F089F8097EFC3E59
:101EA00000F007B881EA03014FF0000001F00041A3
:101EB000704781EA030100F0C8B8F0BCBDE80041FA
:101EC0004FF0000021497047FFFDFBF9F7F5F4F2F0
:101ED000F0EEEDEBE9E8E6E4E3E1E0DEDDDBDAD8C5
:101EE000D7D5D4D3D1D0CFCDCCCBCAC8C7C6C5C423
:101EF000C2C1C0BFBEBDBCBBBAB9B8B7B6B5B4B33A
:101F0000B2B1B0AFAEADACABAAA9A8A8A7A6A5A424
:101F1000A3A3A2A1A09F9F9E9D9C9C9B9A999998E8
:101F20009797969595949393929191908F8F8E8E8B
:101F30008D8C8C8B8B8A8989888887878685858418
:101F400084838382828181800000FF070000F87F04
:101F50004FEA41034FEA5353A3F58063D3F11E03C5
:101F6000C8BFD3F1210C0CDD4FF0004242EAC12280
:101F700042EA505232FA03FC8CEAE17CACEBE170AD
:101F80007047102BC4BF0020704703F5787CBCF16C
:101F9000FF3F04D06FF0004282EA2100704770B525
:101FA00000F005F84992248000207047F2E70EF116
:101FB000020E2EF0030E5EF8046B364205D4012AA1
:101FC00043EB030515F5001F12D8012841EB010C66
:101FD0001CF5001F0CD80ED14FEAD17C15F5001F5F
:101FE0000CEB4C0C0CF1020C08BF4CEBD37C04E066
:101FF0004FF0080C01E04FEAD37C0CEB4C0526FABD
:1020000005F606F00706B6F1040C06D20EEB860CB8
:10201000BDE870404CF0010C6047DFE80CF0090BA4
:1020200002024FF000414FF00000A1F5002170BD09
:1020300019461046012851EB010418BFD4F50014CD
:1020400084BF002001F0004170BD0808A0F5001118
:102050004FEA31017047000043004FEAD30C4FEACA
:102060003C0C43401FBF40070CF1605113F0FE4F82
:1020700070471CF0006F03D100200CF00041704746
:102080000CF0004343EA507010B540EACC0000F079
:1020900082F900BF000000924FEA0001FFF7D5BFB0
:1020A0004FF000414FF00000A1F500217047000003
:1020B0004FF47F0C1CEAD0121EBF1CEAD11392EA27
:1020C0000C0F93EA0C0F00F0858090EA010F48BFD7
:1020D00042F4807240F4000C41F400002CF07F4187
:1020E00020F07F4000B58142A2EB03020FF2081CF2
:1020F000ACEB504EC0F100009EF800E04FEA4E0EEF
:1021000000FB0EFC38BF49004FEA2C1C02F5FA0216
:102110000CFB0EF34FEACE1E4FEA112C4FEAC12101
:102120000EEB635E42EB22420EFB0CFC4FEA1C53AB
:1021300000FB03114FEA112C4FEA01310EFB0CFC9E
:102140004FEADC4C00FB0C11C14228BF09184CEBD4
:1021500003335DF804EB10EB410143EBC250B2F5E1
:102160007C0F38BF704729D512F0F00F1CBF00F16B
:10217000C04000F0004070470081828384858687DC
:1021800088898B8C8D8E8F919293959697999A9C36
:102190009D9FA0A2A3A5A7A8AAACAEB0B2B3B5B7A5
:1021A000B9BCBEC0C2C5C7C9CCCED1D4D7D9DCDF7B
:1021B000E2E6E9ECF0F3F7FAFE0000004FEA400C2B
:1021C0000CF1807CBCF17E4F28BF7047B0F1C0405D
:1021D00000F027B990EA010F0CEAD11348BF42F48E
:1021E0008072624538BF634507D213F47F0F16D063
:1021F00080EA010000F00040704710B500F0CBF815
:10220000097EFC3E00F005B880EA010000F00040C5
:10221000704780EA010000F0004000F002B912F4BB
:102220007F0F04BF0248704780EA010000F0F9B850
:102230000000C07F41000B0ED3F19E0208D950F47C
:1022400000034FEA032323FA02F048BF40427047DD
:1022500010B500F0A0F800BF49922480002070471C
:102260006FF0004282EA200070470000B0FA80F36D
:1022700010FA03F2C3F19D030AD0D90501EB122035
:10228000530638BF704700F1010008BF20F001007D
:10229000704700004FF47F0C1CEAD0121EBF1CEAEE
:1022A000D11392EA0C0F93EA0C0F00F0478090EAEA
:1022B000010F48BF42F480724FF0004C4CEA0020FE
:1022C0004CEA012102EB0302A0FB0113A2F500027C
:1022D000002918BF43F001035B0028BF4FEA330316
:1022E00042EB22425FEA132C4CEBC2502EBFBCEBF8
:1022F000436FB2F57C0F70474FEA036CBCF1004F9F
:1023000008BF20F00100B2F57C0F38BF70470BD535
:1023100082F0FF0212F5803FC8BF704700F1C04055
:10232000D8BF00F00040704700F5000C5FEA4C0C8D
:1023300048BF7047B0F1C04000F073B890EA010F99
:102340000CEAD11348BF42F48072624538BF63453E
:1023500004D280EA010000F00040704710B500F0A0
:102360001AF800BF8900013E00F007B800F009B874
:102370005FEA410C5FEA1C6C08D080EA010000F0C3
:1023800050B85FEA400C5FEA1C6CF6D14FF0004099
:10239000A0F5800070470EF1020E2EF0030E5EF8DD
:1023A000044B244204D44FEA4102B2F17F4F11D8CA
:1023B0004FEA4003B3F17F4F0CD80ED14FEAD07CE7
:1023C000B2F17F4F0CEB4C0C0CF1020C08BF4CEB44
:1023D000D17C04E04FF0080C01E04FEAD17C0CEB1B
:1023E0004C0324FA03F404F00704B4F1040C06D2FD
:1023F0000EEB840CBDE810404CF0010C6047DFE8A8
:102400000CF0070802024FF00040A0F5800010BD5C
:102410000846420018BFD2F1807288BF00F0004029
:1024200010BDFF2141EAD050C005704701020203F0
:102430000405060708090A0B0C0D0E0F101000000A
:102440000000000000000102030406070809000064
:102450007024000800000020800000006C010008CB
:10246000F024000880000020B80700008801000860
:102470000000000000000100000103000000000057
:10248000000000000100000000000000F401E8036B
:1024900050000000000000000000000000000000EC
:1024A0000000000000F4010000640000EC5128412D
:1024B0003D0A3A42F6A8A4425238EC42AEC71A434B
:1024C0001F853B40000000000000000000000000ED
:1024D00000000000000000000000000001000000FB
:1024E0000100000010000000000000000024F400C3
:0400000508000131BD
:00000001FF
