:020000040800F2
:100000005008002029020008DD160008AF13000880
:1000100081150008C9040008931B000800000000B7
:10002000000000000000000000000000DD180008D3
:100030004306000800000000DF160008431900080E
:10004000430200084302000843020008430200087C
:10005000430200084302000843020008430200086C
:10006000430200084302000843020008430200085C
:10007000430200084302000843020008430200084C
:10008000430200084302000843020008430200083C
:10009000430200084302000843020008430200082C
:1000A00043020008E919000843020008430200085F
:1000B000F519000843020008430200084302000843
:1000C00043020008430200084302000843020008FC
:1000D00043020008430200084302000843020008EC
:1000E00043020008430200084302000843020008DC
:1000F00043020008430200084302000843020008CC
:1001000043020008430200084302000843020008BB
:1001100043020008430200084302000843020008AB
:10012000430200084302000843020008430200089B
:10013000430200084302000843020008430200088B
:10014000430200084302000843020008430200087B
:10015000430200084302000843020008430200086B
:10016000430200084302000843020008430200085B
:100170004302000843020008430200080000000098
:10018000430200084302000800F002F800F03CF8C7
:100190000AA090E8000C82448344AAF10107DA45E2
:1001A00001D100F031F8AFF2090EBAE80F0013F0F8
:1001B000010F18BFFB1A43F0010318470C2200007F
:1001C0002C220000103A24BF78C878C1FAD8520710
:1001D00024BF30C830C144BF04680C6070470000C1
:1001E0000023002400250026103A28BF78C1FBD840
:1001F000520728BF30C148BF0B6070471FB502F0DF
:10020000D6F81FBD10B510BD00F0CFF81146FFF7AE
:10021000F5FF01F025FD00F0EDF803B4FFF7F2FF64
:1002200003BC00F0F5F80000094880470948004782
:10023000FEE7FEE7FEE7FEE7FEE7FEE7FEE7FEE796
:10024000FEE7FEE704480549054A064B70470000F3
:10025000D919000889010008500200205008002028
:10026000500400205004002053EA020C00F0698082
:100270002DE9F04B4FF00006002B1FBFB3FA83F5BA
:1002800003FA05F424FA05F65E4012BF1643B2FAEB
:1002900082F502FA05F4C5F120051EBF22FA05FC1D
:1002A00044EA0C04203556EA044C4FEA144418BFC3
:1002B000641C4FF000084FF00009904271EB030CF2
:1002C00039D3002919BFB1FA81F701FA07F6B0FA5C
:1002D00080F700FA07F6C7F120071EBF20FA07FCD7
:1002E00046EA0C062037B6FBF4FCA7EB0507103FE7
:1002F00007F01F0BCBF120060CFA0BFB2CFA06F6CD
:1003000044BFB3460026202FA4BF5E464FF0000B2B
:100310005BEA060C08BF4FF0010B19EB0B09ABFBB6
:10032000027C48EB0608C01B06FB02CC0BFB03CC8F
:1003300071EB0C01C1E70B46024641464846BDE859
:10034000F08B13B54FF000004FF00001AFF30080C9
:10035000BDE81C4070474FF0000200B513469446BC
:100360009646203922BFA0E80C50A0E80C50B1F10D
:100370002001BFF4F7AF090728BFA0E80C5048BF21
:100380000CC05DF804EB890028BF40F8042B08BFBF
:10039000704748BF20F8022B11F0804F18BF00F8BB
:1003A000012B7047704770477047754600F02CF876
:1003B000AE4605006946534620F00700854618B052
:1003C00020B5FFF73FFFBDE820404FF000064FF09B
:1003D00000074FF000084FF0000B21F00701AC467A
:1003E000ACE8C009ACE8C009ACE8C009ACE8C00999
:1003F0008D46704710B50446AFF300802046BDE837
:100400001040FFF70ABF000000487047EC010020D1
:1004100001491820ABBEFEE726000200704700002D
:1004200070B51E4E04460125707801280FD01C4877
:1004300001F0D2FB002809D0757084F8AB50B07879
:10044000401CC0B2B070052800D9B57070BDB0783E
:10045000012808D0022808D0032808D0042808D092
:10046000052808D00AE0606906E0A06904E0E069B8
:1004700002E0206A00E0606AC4F8A00000F0EEF834
:10048000084801F0A9FB0028E0D00020707084F833
:10049000AA50022004F8890F657070BD000000208A
:1004A00000879303C0C62D0000222021014800F0E0
:1004B0001ABA0000000C024001222021014800F07D
:1004C00012BA0000000C0240FEE770B5024690ED43
:1004D000000AB0F8801090F8820001F06BFB5061C8
:1004E00092ED010AB2F8801092F8820001F062FBEE
:1004F000906192ED020AB2F8801092F8820001F049
:1005000059FBD06192ED030AB2F8801092F8820094
:1005100001F050FB106292ED040AB2F8801092F8DC
:10052000820001F047FB5062D2E90534E11A116301
:10053000D169CD1A5563156AEE1A9663C61AD66349
:100540001E1B16640E1B56642E1B9664061BD66477
:100550005E1A1665661A56656E1A9665461AD6654F
:100560005E1B1666661B56664E1B9666461B1B1A5E
:10057000C2E91B63231A091A281A5367C2E91E101D
:1005800070BD02EB810300EB8300914202D250F870
:10059000180C704750F8140C7047012180F8AF1008
:1005A000704701F06FB8012180F8AC10704701224C
:1005B00080F8AE20002904DDC0F8A01080F88A2061
:1005C00070474942C0F8A010002180F88A10704797
:1005D00000B501230246012908D002290BD00329C6
:1005E0000ED0042911D0052914D017E082F8B330B9
:1005F00082ED2F0A12E082F8B43082ED300A0DE06D
:1006000082F8B53082ED310A08E082F8B63082ED2A
:10061000320A03E082F8B73082ED330A82F8D01054
:1006200032F8801F907801F0C5FA106202205072F3
:1006300082F82B3082F82D3000BD012180F8AB10FC
:100640007047704780EC050AFFF73FBF0122102179
:10065000014800F048B90000000C024000221021BF
:10066000014800F040B90000000C024010B50446FB
:1006700090F8B10030B101F0DBFA44F8940F00209B
:10068000607710BD01F0D4FAD4F89410401AC4F881
:100690009800B4F884000321B0FBF1F1D4F898205D
:1006A0000D4B914201D3012204E0D4F8981081420D
:1006B00006D80022BDE810400421184600F013B906
:1006C000204601F003F994F889000128D9D054F8A4
:1006D000A40F401C206010BD000C02402DE9F84F13
:1006E000DFF8BCA10022012503264FF00F090AF113
:1006F000040BAAF1040E00BF0B6805FA02F42340B4
:10070000A34270D10F7907F00307012F01D0022F08
:1007100016D187684FEA420806FA08FC27EA0C0758
:10072000D1F80CC00CFA08FC4CEA070CC0F808C061
:100730004768A7430C79C4F3001494403C434460D9
:100740000C79E443A4070AD0C4684FEA420C06FAC5
:100750000CF7BC438F6807FA0CF72743C7600C7986
:1007600004F00304022C12D1D40800EB840CDCF852
:1007700020405707FF0E09FA07F824EA0804D1F8C9
:10078000108008FA07F848EA0408CCF820800468CA
:100790004FEA420C06FA0CF7BC430F7907F0030747
:1007A00007FA0CF7274307604C6814F4403F70D0F9
:1007B0003C4C276847F480472760246822F00307F1
:1007C00004F480440094384C07EB040CDCF808482F
:1007D00097074FEA177809FA08F7BC43334FB84236
:1007E00002D1002724E054E0314FB84201D1012763
:1007F0001EE0304FB84201D1022719E02E4FB84217
:1008000001D1032714E02D4FB84201D104270FE096
:100810002B4FB84201D105270AE02A4FB84201D137
:10082000062705E0284FB84201D1072700E0082736
:1008300007FA08F72743CCF80878DAF8004057465B
:10084000D1F804C09C435FEACC2C00D51C433C602B
:10085000DBF800405F46D1F804C09C435FEA8C2C73
:1008600000D51C433C60DEF800407746D1F804C058
:100870009C435FEA8C3C00D51C433C60084F083F1A
:100880003C68D1F804C09C435FEACC3C00D51C43D3
:100890003C60521C102AFFF42FAFBDE8F88F000017
:1008A000083C014044380240003001400000024052
:1008B0000004024000080240000C02400010024008
:1008C0000014024000180240001C02400069084069
:1008D00000D001207047426921EA02030A4043EA3E
:1008E0000241816170470AB1816170470904FBE7E9
:1008F0000148806870470000780000200248816845
:100900000278114481607047780000200B4810B5D0
:10091000016841F400710160016841F48061016087
:10092000016841F480710160032000F06FF80F202E
:1009300000F006F800F024F8002010BD003C024052
:1009400070B50D4D04464FF47A712878B1FBF0F084
:100950000A490968B1FBF0F000F0ECFA48B9102C34
:1009600007D200222146501E00F030F800206C60B3
:1009700070BD012070BD00007800002084000020C0
:100980000A4808B5016841F480410160006800F43C
:10099000804000900548001F016841F080510160CF
:1009A000006800F08050009008BD0000443802400C
:1009B000002809DB00F01F0201219140400980005E
:1009C00000F1E020C0F8001170470000F0B40E4BB9
:1009D0001B680C46C3F30223C3F10705042D00D99D
:1009E0000425191D072901D2002300E0DB1E012682
:1009F00006FA05F1491E214099409E40761E164098
:100A00003143F0BC01F0C6B80CED00E0064900F03F
:100A1000070208684FF6FF03184040EA0220034A25
:100A200010430860704700000CED00E00000FA057C
:100A30002DE9F0470E46050065D0DFF81481D8F89F
:100A40000000F7B200F00700B04207D288F800704B
:100A5000D8F8000000F00700B04254D128683D4C9F
:100A6000810712D5400703D5206840F4E05020608C
:100A70002878000703D5206840F460402060206893
:100A8000A96820F0F000084320602878C0072DD026
:100A9000304968680839012812D0022813D0032889
:100AA00011D00968890700292DDA216821F0030196
:100AB00001432160FFF71CFF814641F2883A0EE0B6
:100AC00009688903EFE709688901ECE7FFF710FF80
:100AD000A0EB0901514502D90320BDE8F087206849
:100AE000696800F00C00B0EB810FEFD1D8F800106E
:100AF000404601F00701B14207D90770006800F0D5
:100B00000700B04201D00120E7E72878400705D56B
:100B10002068E96820F4E050084320602878000746
:100B200006D52068296920F4604040EAC1002060B1
:100B300000F018F82168084AC1F30311515CC8405D
:100B40000649086006480068FFF7FAFE0020C4E77F
:100B5000003C024008380240B8230008840000200E
:100B60007C000020154810B5006810F00C021448F5
:100B700013D01449042A0FD0082A0ED10F4C241F79
:100B80002268236802F03F025B0207D52068C0F3A9
:100B90008810A0FB010106E0084610BD2168C1F3E2
:100BA0008811A1FB00010023FFF75EFB2168C1F360
:100BB0000141491C4900B0FBF1F010BD083802406A
:100BC0000024F40040787D012DE9F84F04006ED038
:100BD0002078DFF84C93C007A9F104054AD009F149
:100BE00004000168C1F38101012908D00068C0F345
:100BF000810002280AD1D9F80000400206D52868F1
:100C0000800337D560680028E1D033E06068B0F534
:100C1000803F10D0B0F5A02F286810D020F480308D
:100C20002860286820F4802028606068A8B1FFF759
:100C30005FFE06460DE0286840F48030F4E740F49B
:100C400080202860F7E700BFFFF752FE801B642872
:100C500073D828688003F7D50CE0FFF749FE0646F5
:100C600005E000BFFFF744FE801B6428F0D8286829
:100C70008003F7D42078DFF8AC8280074FF0000AB9
:100C80003ED5A748001D016811F00C0F08D0006880
:100C9000C0F3810002280BD1D9F80000400207D42C
:100CA0002868800716D5E068012800D112E033E1FA
:100CB000E068B8B10120C8F80000FFF719FE064649
:100CC00005E000BFFFF714FE801B0228C0D828688B
:100CD0008007F7D52868216920F0F80040EAC100B4
:100CE00028600DE0C8F800A0FFF702FE064604E009
:100CF000FFF7FEFD801B02281FD828688007F7D465
:100D00002078000722D5864F87486169703771B116
:100D100001210160FFF7ECFD064604E0FFF7E8FD66
:100D2000801B022809D838688007F7D50EE0C0F884
:100D300000A0FFF7DDFD064605E082E0FFF7D8FDE5
:100D4000801B02287DD838688007F7D420784007B8
:100D500068D5DFF8CCB100270BF13C0BDBF80000C5
:100D6000C0000BD4DBF8001041F08051CBF800102C
:100D7000DBF80000012700F0805000906B4E3068D7
:100D8000C00510D4306840F480703060FFF7B0FDCB
:100D9000009005E0FFF7ACFD0099401A022850D8FA
:100DA0003068C005F6D55E4EA0686C3601280FD0BD
:100DB0000528306810D020F001003060306820F045
:100DC00004003060A068B8B1FFF792FD00900FE01A
:100DD000306840F00100F4E740F004003060F7E7CD
:100DE000FFF786FD0099411A41F28830814266D8AA
:100DF00030688007F4D50EE0FFF77AFD009007E039
:100E0000FFF776FD0099411A41F28830814256D8A9
:100E100030688007F4D42FB1DBF8001021F0805146
:100E2000CBF80010A069C8B33D49091D0968C1F39A
:100E3000810102294AD00228504607D0C8F8600034
:100E400000E03CE0FFF754FD04463BE04746C8F8AD
:100E50006000FFF74DFD064605E000BFFFF748FDC7
:100E6000801B02282BD828688001F7D4D4E9070119
:100E70000843A16A2E4A490802EB0141626A41EA2D
:100E80008211084394F82C1040EA0161C9F800105F
:100E900001203866FFF72CFD044606E03EE000BF67
:100EA000FFF726FD001B022809D828688001F7D526
:100EB00034E000BFFFF71CFD001B022802D903200D
:100EC000BDE8F88F28688001F4D427E00128F7D026
:100ED000D9F80000E26900F4800191421CD1226A35
:100EE00000F03F01914217D147F6C071626A01409C
:100EF000B1EB821F10D1A26A4FF0FF3300F44031F2
:100F000003EB5202B1EB024F06D194F82C1000F023
:100F10007060B0EB016F01D00120D1E70020CFE776
:100F20000438024000004742800E474200700040F3
:100F30000000FFFF10B5401EB0F1807F01D30120FB
:100F400010BD4FF0E02460610F21601700F022FE19
:100F50000020A06107202061002010BD704770476D
:100F600070B590F83C20012A32D0012480F83C4032
:100F7000022280F83D2003685A689D6822F07006BE
:100F80000A6832435A60134B02689A4214D0B2F195
:100F9000804F11D0104B9A420ED0104B9A420BD07A
:100FA0000F4B9A4208D00F4B9A4205D00E4B9A42F3
:100FB00002D00E4B9A4204D1496825F080031943B0
:100FC000916080F83D40002180F83C10084670BDDB
:100FD000022070BD000001400004004000080040F5
:100FE000000C004000040140004001400018004097
:100FF00010B5040003D094F83D0010B107E00120C3
:1010000010BD002084F83C00204600F01FF80220AC
:1010100084F83D00211D206800F0F2FC012084F8D6
:10102000460084F83E0084F83F0084F8400084F8CD
:10103000410084F8420084F8430084F8440084F8B6
:10104000450084F83D00002010BD000008B5006890
:10105000154988420FD11548016841F0010101602E
:101060000068002200F00100009011461920FFF7EF
:10107000ADFC192012E0B0F1804F13D10B48001FD6
:10108000016841F0010101600068002200F00100E8
:10109000009011461C20FFF799FC1C20BDE8084079
:1010A000FFF786BC08BD0000000001404438024044
:1010B00090F83D10012901D001207047022180F8ED
:1010C0003D100168CA6842F00102CA600068114917
:1010D000884214D0B0F1804F11D00F4988420ED011
:1010E0000E4988420BD00E49884208D00D498842EB
:1010F00005D00D49884202D00C49884204D181684C
:1011000001F00701062903D0016841F001010160E7
:10111000002070470000014000040040000800402B
:10112000000C004000040140004001400018004055
:1011300070B5044690F83C000025012817D0012620
:1011400084F83C60022084F83D002068826822F028
:10115000770222F47F4282600868502838D00DDC84
:1011600020284FD005DC90B3102811D14AE002208E
:1011700070BD302846D040280AD13BE060282FD0EF
:1011800070280DD0B0F5805F03D0B0F5005F12D0AD
:10119000012584F83D60002084F83C00284670BD9D
:1011A000CB68D1E90121206800F08EFC20688168BD
:1011B00041F0770109E0CB68D1E90121206800F016
:1011C00083FC2068816841F480418160E1E719E097
:1011D000CA684968206800F089FC5021206806E050
:1011E000CA684968206800F092FC6021206800F01D
:1011F00075FCCEE7CA684968206800F077FC40219A
:101200002068F4E7226801461046F0E7704770B5A1
:101210000446006801694FF00005C943890715D4E9
:10122000C168C943890711D4E91E016101202077F3
:10123000206880698007204602D0FFF7E7FF04E0BE
:1012400000F098F8204600F096F8257720680169AC
:10125000C943490717D4C168C943490713D46FF07C
:1012600004010161022020772068806910F4407F2A
:10127000204602D0FFF7CAFF04E000F07BF82046CA
:1012800000F079F8257720680169C943090716D469
:10129000C168C943090712D46FF008010161042035
:1012A00020772068C0698007204602D0FFF7AEFF94
:1012B00004E000F05FF8204600F05DF82577206834
:1012C0000169C943C90617D4C168C943C90613D403
:1012D0006FF010010161082020772068C06910F4C8
:1012E000407F204602D0FFF791FF04E000F042F873
:1012F000204600F040F8257720680169C943C907F6
:1013000008D1C168C943C90704D1891E01612046BB
:1013100000F032F820680169C943090609D4C168A0
:10132000C943090605D46FF0800101612046FFF72B
:1013300015FE20680169C943490609D4C168C9433B
:10134000490605D46FF040010161204600F02EF8F7
:1013500020680169C94389060BD4C168C94389065D
:1013600007D46FF0200101612046BDE87040FFF70F
:10137000F6BD70BD704770470A4902680B680A499C
:101380009A4205D10A6A521C0A628A8A521C8A82CF
:10139000044A006848321268904202D1C88A401C50
:1013A000C88270475C010020080000207047FEE7FB
:1013B0002DE9F04387B014216846FEF7CCFF38488A
:1013C0000024016841F004010160016801F004019A
:1013D0000591016841F010010160016801F0100100
:1013E0000591016841F001010160016801F001010E
:1013F0000591016841F008010160016801F00801F0
:101400000591016841F0020101600068254F00F07C
:101410000200059000224FF420413846FFF763FA9E
:10142000012291033846FFF75EFADFF87C80012243
:1014300004214046FFF757FA002238214046FFF7C3
:1014400052FADFF868907E15002231464846FFF7D1
:101450004AFA4FF4604000900125CDE901546946F5
:1014600038460394FFF73AF9E803CDE900046946EA
:101470000F480294FFF732F93C200090CDE9015467
:10148000694640460394FFF729F90096CDE90154D7
:10149000694648460394FFF721F907B0BDE8F08399
:1014A0003038024000100240000C024000040240AC
:1014B0000000024010B586B0002417480094019443
:1014C0000294039404941349059401604721C0E9F0
:1014D000011440F2E731C0E9031444618461FFF76D
:1014E00087FD08B172B6FEE74FF480500090694660
:1014F0000948FFF71DFE08B172B6FEE7049404A97F
:1015000005480594FFF72CFD002801D072B6FEE7D0
:1015100006B010BD000001405C01002010B586B08F
:1015200000241648009401940294039404944FF00C
:101530008041059401604721C0E901140921C0E9F7
:1015400003148461FFF754FD08B172B6FEE74FF44F
:101550008050009069460948FFF7EAFD08B172B66D
:10156000FEE7049404A905480594FFF7F9FC002858
:1015700001D072B6FEE706B010BD0000A401002045
:10158000FEE700002DE9F04100EE902A04462DED23
:10159000028BF8EE600A24F8801F0E46A27004ED5C
:1015A000160A60EE800A00EE106A98461746B8EEFA
:1015B000400A20EE800A10EE100A00F087FE41EC8F
:1015C000100B9FED2D8B53EC102B51EC180B00F0F2
:1015D000A1FC00F0F7FDA080022060720025A5723A
:1015E00000EE107AF7EE000A44ED150AB8EE400A54
:1015F00060EE200A00EE106AB8EE400A20EE800A83
:1016000010EE100A00F062FE41EC100B51EC180BCA
:1016100053EC102B00F07EFC00F0D4FD24F8060FF4
:10162000012084F82B0044F80E5F65602561E560B9
:1016300004F8090C44F8085C04F80C8C657584F80F
:101640001480E075A57525766576A5762577E07614
:10165000A577A5609FED0A0A84ED0A0A84ED0B0ABE
:1016600084ED0C0A84ED0D0A84ED0E0A6575BDEC5F
:10167000028BBDE8F081000000000000389C8C4126
:101680000000000001220223012908D002290AD00B
:1016900003290CD004290FD0052912D017E080F8B7
:1016A000A920416911E080F8A93081690DE003218A
:1016B00080F8A910C16908E0042180F8A910016A26
:1016C00003E0052180F8A910416AC0F8A01080F855
:1016D000AB2080F8AA2080F889307047FEE7704779
:1016E0002DE9F047044690F88900DFF8D8910226EA
:1016F000DFF8D4810025012707282ED2DFE800F08B
:101700002D830463CFB6DD0094F8AB0038B300F04E
:101710009FFA84F8900094F8900028B1C4F88C5097
:1017200094F8900030B10CE0D4F88C00401CC4F860
:101730008C00F5E7D4F88C00642802D384F8AB5011
:101740008CE0FEF78BFF002000F0CAF8484600F05E
:1017500043FA002801D084F88970BDE8F08794F836
:10176000AA00032538B1FEF779FF94F88A0015E046
:1017700084F88950F1E794F8AE0048B1FEF76EFFA7
:1017800094F88A00893400F0ABF805202070E4E773
:1017900094F8AD0050B1FEF761FF012000F0A0F811
:1017A000484600F019FA0028E2D1D6E794F8AC00D8
:1017B00008B1042004E094F8AF000028CDD0062042
:1017C00084F88900C9E7D4F8A400D4F8A0108842AE
:1017D00047D1FEF73BFF484600F0FEF90028BCD099
:1017E00084F8896084F8AA5084F8AD50C4F8A450F5
:1017F000C4F8A05094F8A90084F8A8002046BDE8D9
:10180000F04700F063B800F023FA84F8900094F8F1
:10181000900028B1C4F88C5094F8900030B120E0CA
:10182000D4F88C00401CC4F88C00F5E7D4F88C0088
:10183000642816D3FEF70AFF204600F047F884F824
:101840008A70484600F0C8F9002886D0C4F8A45031
:1018500084F8896084F8AB5088F80070C4F88C5024
:101860007BE72046BDE8F047FEF700BF2046FEF7C5
:10187000FDFED4F8A400D4F8A010884287D1FEF76A
:10188000E5FE84F8896084F8AE50C4F8A450C4F82A
:10189000A050204600F01AF888F800605DE7204666
:1018A00000F047F92046FEF710FE94F88810204615
:1018B000FFF7E8FE84F8AC504FE72046BDE8F0475C
:1018C000FEF7AEBDC0C62D0010000020012180F83B
:1018D000B110002140F8941F41607047704700002C
:1018E000044B08B1012200E0002208211846FEF74F
:1018F000FABF0000000C024010B5044690F88900C1
:1019000002281DD194F8A800884219D084F8A910A3
:1019100094F8A92094F8A81004F13000FEF731FEE5
:101920000121002804DDC4F8A00084F88A1005E035
:101930004042C4F8A000002084F88A0084F8AA106D
:1019400010BDFEF7DBBF000030B593B03021684614
:10195000FEF701FD14210CA8FEF7FDFC1C48002534
:10196000016841F080510160006800F080501190E2
:101970001848016841F4804101600068022400F4C5
:101980008040119001200390102004900094069450
:101990000820CDE907504820CDE9090404200B9028
:1019A0006846FFF711F908B172B6FEE70CA90F20DF
:1019B00081E831004FF480500F90109002210CA864
:1019C000FFF736F8002801D072B6FEE713B030BD3D
:1019D00040380240007000400248016841F4700144
:1019E0000160704788ED00E00148FFF710BC00007F
:1019F0005C0100200148FFF70ABC0000A4010020A0
:101A0000F0B50268254C264D264E274F274B4FF048
:101A1000804CA04209D0604507D0A84205D0B04212
:101A200003D0B84201D0984204D122F0700E4A6827
:101A300042EA0E02A0421BD0604519D0A84217D03E
:101A4000B04215D0B84213D0984211D0184DA842D8
:101A50000ED0184DA8420BD0174DA84208D0174DF4
:101A6000A84205D0164DA84202D0164DA84203D177
:101A700022F44075CA682A434D6922F080022A4345
:101A800002608A68C2620A688262A04201D09842FB
:101A900001D10969016301214161F0BD00000140EC
:101AA0000004004000080040000C00400004014019
:101AB000004001400044014000480140001800403F
:101AC000001C00400020004010B5846842EA032258
:101AD00024F47F440A432243826010BD826822F0CE
:101AE00070020A4342F007018160704710B5036A33
:101AF000046A24F001040462846924F0F00444EAD6
:101B0000021423F00A020A438461026210BD10B578
:101B1000036A23F0100303628369046A23F47043A9
:101B200043EA023224F0A00343EA01118261016218
:101B300010BD90F8B32000212AB190ED2F0A80ED5E
:101B4000000A80F8B31090F8B4202AB190ED300A62
:101B500080ED010A80F8B41090F8B5202AB190ED1C
:101B6000310A80ED020A80F8B51090F8B6202AB14B
:101B700090ED320A80ED030A80F8B61090F8B72095
:101B8000002A05D090ED330A80ED040A80F8B710E2
:101B90007047FEE70907090E002804DB00F1E0208A
:101BA00080F80014704700F00F0000F1E02080F88A
:101BB000141D7047484300EE900AF8EE600A20EECC
:101BC000800ADFED040A80EE201ABDEEC10A10EE95
:101BD000100A70470000B4432DE9F041104C8046D4
:101BE000104E2078002528B100F022F860603060A7
:101BF000257013E000F01CF80B4F386000F018F867
:101C00006168421A0948424507D339683268891A1F
:101C1000016001202070BDE8F08105600020FAE736
:101C2000000000206C0000207000002074000020E4
:101C300005480068416A0548006A00EB4002C2EBB3
:101C4000C01001EBC00070475C01002008000020BC
:101C50004FF400410148FEF739BE00000000024089
:101C6000FEF754FEFFF770FEFFF7A2FBFFF722FC22
:101C7000FFF754FC9F4C14224FF4C84194ED100A16
:101C80009D4884ED170A637AE37294ED150A84ED9A
:101C9000180AFFF777FC04F14001974891EC050A18
:101CA000FEF7D0FCFEF700FCFEF7D0FC9348FFF7F0
:101CB000FFF992484830FFF7FBF9DFF84492DFF86C
:101CC00044B2DFF83482032700254FF4004A01268E
:101CD000A08A218B88420AD3A5824FF4005148463E
:101CE000FEF7F9FD4FF400718748FEF7F4FDE08A36
:101CF000618B884204D3E58251464846FEF7EBFDEE
:101D00002079012804D0FEF7CFFBE07C18B10AE06F
:101D1000FEF7D2FBF9E7A06B5146401CA063584682
:101D2000FEF7D4FD6070E07C012841D1A674607993
:101D3000012800D00020FFF7D3FDFEF78FFC5146AD
:101D40005846FEF7C3FD607020B1E5636179084332
:101D500004D00CE0E16B491CE163F7E7E06B642819
:101D600005D3E574606BE562401CE5636063207831
:101D700020B1FFF75DFF6062257019E0FFF758FFA3
:101D8000616A401AA062A18BB1FBF7F2824201D3D3
:101D9000012202E0884205D8002204215B48FEF7B8
:101DA000A2FD05E02670E06A6562401CC4E90A50A5
:101DB000E07C032839D1207B012806D1257394EDDE
:101DC000160AA17A4C48FEF703FC607B012803D178
:101DD00065734948FEF731FCA07B012804D1A57347
:101DE0004548216BFEF7E3FBE07B012803D1E57357
:101DF0004148FEF7D8FB207C012803D125743E48DA
:101E0000FEF7CBFB607C012804D16574E1783A4889
:101E1000FEF7C7FBA078012804D1E1783648FFF728
:101E20006BFDA5703448FFF75BFCE07C04287FF471
:101E30004FAF3148FFF754FCA07978B1012821D089
:101E4000022851D00328F2D1FFF7F2FE616A401A4E
:101E50002F498842FFF43CAFA57111E0E07918B139
:101E6000E5712548FEF7E9FB207A0128DFD12572CC
:101E7000A671607B401CC0B26073052800D96673F0
:101E8000E67125E7607B012808D002280CD00328E2
:101E900010D0042814D0052818D01FE0E079E8B14C
:101EA000E571D8F8141016E0E079B8B1E571D8F80A
:101EB000181010E0E07988B1E571D8F81C100AE03C
:101EC000E07958B1E571D8F8201004E0E07928B144
:101ED000E571D8F824100848FEF769FB207A02283B
:101EE000CFD1A0712572F3E6A771FFF7A1FE606262
:101EF000EEE6000008000020880000205C010020C1
:101F0000001002400000024000040240000C0240A9
:101F100080841E002DE9C04130B4DFF8A0C23CEA45
:101F2000111418BF3CEA131400F0EC8081EA030599
:101F30001CEA111444EAD57418BF1CEA131500F00A
:101F4000C780A4EB05044FF0004545EAC12145EAEE
:101F5000C32341EA505143EA525304F17F7499423A
:101F600004F500344FEAC0204FEAC22208BF904275
:101F700000F09C804FEA13650FF24016765D4FEA41
:101F8000134506FB05F7C7F1807706FB07F74FEA15
:101F9000D737A7FB03687642C8F58038A7FB06CE83
:101FA00038BFA8F1010807FB08E64FF0000EA6FBBA
:101FB000028CE6FB03CEDCF1000CCEF1004E38BF04
:101FC000AEF1010EA6FB0C584FF000074FF00005D4
:101FD000E6FB0E87A1FB08C6A0FB07CE16EB0E069C
:101FE00045F10005E1FB076515F1E04E7EBFA4F564
:101FF00080345FEA46066D4116F1800745F1000521
:102000004FEA17274FEA066647EA0567A6F1DE465C
:10201000B6F1805F4FEA15251FD9384624F0010C30
:1020200005EBC471BCF1FE6F01EB0C1102D8F0BCE2
:10203000BDE8008124425CBF01F5801E9EEAC47F9A
:1020400002D4F0BCBDE80081244238D4F0BCA1F138
:10205000C041BDE8004100F032B94FEAD22242EA65
:1020600043524FEAD323A7FB02864FEAD02040EA2F
:10207000415007FB03661EEA0E0F4FEAD12105FB14
:10208000026658BFA6EB0056B6EB00564FEA520E5A
:102090004EEAC37E18EB0E0E56EB530EBDD518EB71
:1020A00002085E417F1C55F10005B6E74FF480152C
:1020B0004FF000074FF000064FF00008ADE7F0BC0E
:1020C0004FF0000001F1C04101F00041BDE8008186
:1020D00011EA0C1F0CEA131500D00CE013EA0C1FD8
:1020E00000F025804FF00000F0BC81EA030101F010
:1020F0000041BDE80081F0BCBDE8004181EA030178
:1021000000F0DDB8F0BCBDE8004170B500F089F822
:10211000097EFC3E00F007B881EA03014FF00000A1
:1021200001F00041704781EA030100F0C8B8F0BC3B
:10213000BDE800414FF0000021497047FFFDFBF969
:10214000F7F5F4F2F0EEEDEBE9E8E6E4E3E1E0DEEA
:10215000DDDBDAD8D7D5D4D3D1D0CFCDCCCBCAC85C
:10216000C7C6C5C4C2C1C0BFBEBDBCBBBAB9B8B783
:10217000B6B5B4B3B2B1B0AFAEADACABAAA9A8A876
:10218000A7A6A5A4A3A3A2A1A09F9F9E9D9C9C9B44
:102190009A999998979796959594939392919190EF
:1021A0008F8F8E8E8D8C8C8B8B8A89898888878780
:1021B0008685858484838382828181800000FF07F5
:1021C0000000F87F4FEA41034FEA5353A3F58063C1
:1021D000D3F11E03C8BFD3F1210C0CDD4FF0004238
:1021E00042EAC12242EA505232FA03FC8CEAE17C14
:1021F000ACEBE1707047102BC4BF0020704703F5B3
:10220000787CBCF1FF3F04D06FF0004282EA2100ED
:10221000704770B500F005F849922480002070479F
:10222000F2E70EF1020E2EF0030E5EF8046B36425A
:1022300005D4012A43EB030515F5001F12D8012828
:1022400041EB010C1CF5001F0CD80ED14FEAD17CDC
:1022500015F5001F0CEB4C0C0CF1020C08BF4CEBFD
:10226000D37C04E04FF0080C01E04FEAD37C0CEB88
:102270004C0526FA05F606F00706B6F1040C06D260
:102280000EEB860CBDE870404CF0010C6047DFE8B7
:102290000CF0090B02024FF000414FF00000A1F5D5
:1022A000002170BD19461046012851EB010418BFEA
:1022B000D4F5001484BF002001F0004170BD08086F
:1022C000A0F500114FEA31017047000043004FEACA
:1022D000D30C4FEA3C0C43401FBF40070CF1605148
:1022E00013F0FE4F70471CF0006F03D100200CF07C
:1022F000004170470CF0004343EA507010B540EACB
:10230000CC0000F00EF800BF000000924FEA000180
:10231000FFF7D5BF4FF000414FF00000A1F50021BD
:1023200070470EF1020E2EF0030E5EF8044B2442AD
:1023300004D44FEA4102B2F17F4F11D84FEA400373
:10234000B3F17F4F0CD80ED14FEAD07CB2F17F4F62
:102350000CEB4C0C0CF1020C08BF4CEBD17C04E0F4
:102360004FF0080C01E04FEAD17C0CEB4C0324FA4F
:1023700003F404F00704B4F1040C06D20EEB840C51
:10238000BDE810404CF0010C6047DFE80CF0070896
:1023900002024FF00040A0F5800010BD0846420048
:1023A00018BFD2F1807288BF00F0004010BD4FF01E
:1023B0004070E1EE100A70470000000000000000CD
:1023C0000102030406070809E823000800000020B2
:1023D00088000000C4010008702400088800002064
:1023E000C8070000E0010008010000000000000034
:1023F00001010001010000010003000000000000D5
:102400000000000300000000F401E8036400000085
:1024100000000000000000000000000000000000BC
:10242000C78AA900000000000000000000000000B2
:102430000000404000001E42666696426666DE422C
:102440009A1913430000803F0000000000000000C4
:10245000000000000000000000000000000000007C
:102460000100000010000000000000000024F40043
:040000050800018965
:00000001FF
